:100000000C9495000C94B2000C94B2000C94B400C3
:100010000C94B2000C94B2000C94B2000C94B20098
:100020000C94B2000C94B2000C94A5040C94B20091
:100030000C94B2000C942D010C94B2000C94B200FC
:100040000C94B2000C94B2000C94B2000C94B20068
:100050000C94B200600177018E01A501BC01D301AF
:10006000EA0101021802A102A102A102A102A10259
:10007000A102A102A102A102A102A102A102A10268
:10008000A102A102A102A102A102A102A102A10258
:10009000A102A102A102A102A102A102A102A10248
:1000A000A102A102A102A102A102A102A102A10238
:1000B000A102A1022F0246025D0274028B02AD0270
:1000C000C402DB02F2020903200337034E03650377
:1000D00005040504050405040504050405040504D8
:1000E00005040504050405040504050405040504C8
:1000F00005040504050405040504050405040504B8
:1001000005040504050405040504050405040504A7
:1001100005040504050405040504050405047C0321
:100120009303AA03C103D803EF0311241FBECFE535
:10013000D8E0DEBFCDBF10E0A0E6B0E0E6EDF9E02C
:1001400002C005900D92A236B107D9F720E0A2E6D1
:10015000B0E001C01D92A437B207E1F70E9422046B
:100160000C94E9040C9400001F920F920FB60F92AA
:1001700011242F933F934F935F936F937F938F93AC
:100180009F93AF93BF93EF93FF93809160008F5F36
:10019000809360008091620090916300019709F064
:1001A0004BC08091600080FD0EC0E0916400F09132
:1001B0006500EE0FFF1FEA59FF4F80819181892B67
:1001C00011F00E949B048091600080FF17C0E091B5
:1001D0006400F0916500EE0FFF1FEA59FF4F808128
:1001E0009181019711F40E949B0480916400909189
:1001F000650001969093650080936400809164008F
:10020000909165000597C1F410926300109262000E
:1002100010926700109266001092690010926800B8
:1002200010926B0010926A0010926D0010926C0098
:1002300010926F0010926E00FF91EF91BF91AF91FD
:100240009F918F917F916F915F914F913F912F91EE
:100250000F900FBE0F901F9018951F920F920FB620
:100260000F9211242F933F934F935F936F937F933C
:100270008F939F93AF93BF93EF93FF93CF93DF93AE
:1002800000D000D0CDB7DEB764E070E0CE010196BB
:100290000E9473048981813219F08F3309F0BBC247
:1002A0008B81803309F0B1C28A8190E0FC01F19723
:1002B000E533F10508F045C1E65DFF4F0C94E3041A
:1002C0001092670010926600109269001092680008
:1002D00010926B0010926A0081E090E090936D00A4
:1002E00080936C0090936F0080936E002AC11092EF
:1002F000670010926600109269001092680081E019
:1003000090E090936B0080936A0010926D001092C1
:100310006C0090936F0080936E0013C11092670081
:1003200010926600109269001092680081E090E0DF
:1003300090936B0080936A0090936D0080936C00A3
:1003400090936F0080936E00FCC010926700109233
:10035000660081E090E090936900809368001092BD
:100360006B0010926A0010926D0010926C009093D6
:100370006F0080936E00E5C01092670010926600D7
:1003800081E090E0909369008093680010926B0088
:1003900010926A0090936D0080936C0090936F00B0
:1003A00080936E00CEC0109267001092660081E0CC
:1003B00090E0909369008093680090936B00809325
:1003C0006A0010926D0010926C0090936F00809301
:1003D0006E00B7C0109267001092660081E090E056
:1003E000909369008093680090936B0080936A00FB
:1003F00090936D0080936C0090936F0080936E00DB
:10040000A0C081E090E09093670080936600109216
:1004100069001092680010926B0010926A001092AE
:100420006D0010926C0090936F0080936E0089C0F5
:1004300081E090E0909367008093660010926900DD
:100440001092680010926B0010926A0090936D00F9
:1004500080936C0090936F0080936E0072C081E077
:1004600090E090936700809366001092690010926C
:10047000680090936B0080936A0010926D00109258
:100480006C0090936F0080936E005BC081E090E001
:100490009093670080936600109269001092680044
:1004A00090936B0080936A0090936D0080936C0032
:1004B00090936F0080936E0044C081E090E0909331
:1004C00067008093660090936900809368001092A3
:1004D0006B0010926A0010926D0010926C00909365
:1004E0006F0080936E002DC081E090E090936700D4
:1004F00080936600909369008093680010926B006F
:1005000010926A0090936D0080936C0090936F003E
:1005100080936E0016C081E090E090936700809316
:100520006600909369008093680090936B008093BD
:100530006A0010926D0010926C0090936F0080938F
:100540006E008A8190E0FC01F197E633F10508F036
:100550005CC1E15AFF4F0C94E304109267001092C3
:100560006600109269001092680010926B00109261
:100570006A0081E090E090936D0080936C0010928F
:100580006F0010926E0041C11092670010926600D9
:10059000109269001092680081E090E090936B00E7
:1005A00080936A0010926D0010926C0010926F00A0
:1005B00010926E002AC1109267001092660010928D
:1005C00069001092680081E090E090936B00809346
:1005D0006A0090936D0080936C0010926F001092EF
:1005E0006E0013C1109267001092660081E090E0E7
:1005F000909369008093680010926B0010926A00DB
:1006000010926D0010926C0010926F0010926E00AC
:10061000FCC0109267001092660081E090E0909319
:1006200069008093680010926B0010926A009093AA
:100630006D0080936C0010926F0010926E00E5C008
:10064000109267001092660081E090E0909369003C
:100650008093680090936B0080936A0010926D0005
:1006600010926C0010926F0010926E00CEC010922B
:1006700067001092660081E090E09093690080939B
:10068000680090936B0080936A0090936D00809354
:100690006C0010926F0010926E00B7C081E090E085
:1006A0009093670080936600109269001092680032
:1006B00010926B0010926A0010926D0010926C0004
:1006C00010926F0010926E00A0C081E090E09093B5
:1006D0006700809366001092690010926800109283
:1006E0006B0010926A0090936D0080936C001092E2
:1006F0006F0010926E0089C081E090E090936700D7
:1007000080936600109269001092680090936B00CD
:1007100080936A0010926D0010926C0010926F002E
:1007200010926E0072C081E090E090936700809319
:100730006600109269001092680090936B0080939D
:100740006A0090936D0080936C0010926F0010927D
:100750006E005BC081E090E090936700809366003C
:10076000909369008093680010926B0010926A0069
:1007700010926D0010926C0010926F0010926E003B
:1007800044C081E090E0909367008093660090936E
:1007900069008093680010926B0010926A00909339
:1007A0006D0080936C0010926F0010926E002DC04F
:1007B00081E090E0909367008093660090936900D9
:1007C0008093680090936B0080936A0010926D0094
:1007D00010926C0010926F0010926E0016C081E0B3
:1007E00090E09093670080936600909369008093F7
:1007F000680090936B0080936A0090936D008093E3
:100800006C0010926F0010926E0081E090E0909367
:100810006300809362000F900F900F900F90DF9114
:10082000CF91FF91EF91BF91AF919F918F917F9168
:100830006F915F914F913F912F910F900FBE0F904D
:100840001F90189521E048E060E875E280E090E0B4
:100850000E942E040E94B3047894FFCF0F931F933D
:10086000522F8B019C010E561109210931090339C0
:10087000114C2140310580F52BEF240F243060F519
:1008800020E22BB928E12AB95111579A242F30E0E0
:1008900025503109220F331F206820BDDC01CB0118
:1008A000880F991FAA1FBB1F880F991FAA1FBB1F64
:1008B0009C01AD01220F331F441F551F220F331F10
:1008C000441F551F60E070E488E390E00E94C1047B
:1008D0002150310930BD29B91F910F9108955F9BB7
:1008E000FECF8CB10895EF92FF920F931F93CF9399
:1008F000DF938C017B010E946F048D3099F01E14F0
:100900001F0484F4F801E00EF11EEF0121968E0120
:1009100080830E946F048D3029F0CE15DF0511F021
:10092000FE01F3CFF8011082DF91CF911F910F915B
:10093000FF90EF900895BB9A8DEE92E00197F1F74A
:1009400000C0000087B387BB08951F920F920FB6B7
:100950000F9211248F938EE08CBF8F910F900FBE5A
:100960000F901F90189587B387BB80E484BF8BB727
:1009700080628BBF89E683BF12BE89B7826089BF60
:100980000895A1E21A2EAA1BBB1BFD010DC0AA1FD0
:10099000BB1FEE1FFF1FA217B307E407F50720F0E8
:1009A000A21BB30BE40BF50B661F771F881F991F63
:1009B0001A9469F760957095809590959B01AC01AC
:1009C000BD01CF010895EE0FFF1F0590F491E02DBA
:0609D0000994F894FFCF2A
:0209D60001001E
:00000001FF
