:100000000C9495000C94B2000C94B2000C94B400C3
:100010000C94B2000C94B2000C94B2000C94B20098
:100020000C94B2000C94B2000C94C2030C94B20075
:100030000C94B2000C9432010C94B2000C94B200F7
:100040000C94B2000C94B2000C94B2000C94B20068
:100050000C94B2006501740183019201A101B00109
:10006000BF01CE01DD01360236023602360236020B
:1000700036023602360236023602360236023602C0
:1000800036023602360236023602360236023602B0
:1000900036023602360236023602360236023602A0
:1000A0003602360236023602360236023602360290
:1000B00036023602EC01FB010A0219022802420252
:1000C000510260026F027E028D029C02AB02BA02F4
:1000D00022032203220322032203220322032203F8
:1000E00022032203220322032203220322032203E8
:1000F00022032203220322032203220322032203D8
:1001000022032203220322032203220322032203C7
:100110002203220322032203220322032203C90211
:10012000D802E702F6020503140311241FBECFE52F
:10013000D8E0DEBFCDBF10E0A0E6B0E0E0E1F8E03F
:1001400002C005900D92A236B107D9F720E0A2E6D1
:10015000B0E001C01D92AE36B207E1F70E943F0346
:100160000C9406040C9400001F920F920FB60F928D
:1001700011242F933F934F935F936F937F938F93AC
:100180009F93AF93BF93EF93FF93809160008F5F36
:10019000809360008091680090916900019709F058
:1001A00050C08091600080FF04C010926D001092DA
:1001B0006C008091600080FF1AC0E0916A00F091AD
:1001C0006B00EE59FF4F8081813389F40E94B803A0
:1001D00080916A0090916B00019690936B008093E0
:1001E0006A0081E090E090936D0080936C008091B4
:1001F000600080FD1AC0E0916A00F0916B00EE593A
:10020000FF4F8081803389F480916C0090916D0064
:10021000892B59F40E94B80380916A0090916B0079
:10022000019690936B0080936A0080916A00909190
:100230006B00059731F410926900109268001092DB
:100240006200FF91EF91BF91AF919F918F917F914C
:100250006F915F914F913F912F910F900FBE0F9033
:100260001F9018951F920F920FB60F9211242F9383
:100270003F934F935F936F937F938F939F93AF932E
:10028000BF93EF93FF93CF93DF9300D000D0CDB710
:10029000DEB764E070E0CE0101960E949003898190
:1002A000813219F08F3309F0D3C18B81803309F08B
:1002B000C9C18A8190E0FC01F197E533F10508F0AE
:1002C000D5C0E65DFF4F0C94000480E3809362008C
:1002D000809363008093640081E380936500809342
:1002E000660010926700C2C080E380936200809332
:1002F000630091E39093640080936500909366009F
:1003000010926700B3C080E3809362008093630023
:1003100081E380936400809365008093660010926F
:100320006700A4C080E38093620091E39093630030
:10033000809364008093650090936600109267003C
:1003400095C090E39093620081E380936300909363
:10035000640080936500809366001092670086C0F9
:1003600090E39093620081E3809363008093640044
:1003700090936500809366001092670077C080E3D9
:100380008093620081E38093630080936400809394
:100390006500809366001092670068C091E39093B7
:1003A000620080E380936300809364008093650023
:1003B000909366001092670059C081E380936200B9
:1003C00090E3909363009093640080936500809322
:1003D0006600109267004AC081E38093620090E358
:1003E000909363008093640090936500809366000F
:1003F000109267003BC081E38093620090E390938A
:10040000630080936400809365008093660010927F
:1004100067002CC081E3809362008093630090E3C7
:10042000909364009093650080936600109267003B
:100430001DC081E3809362008093630090E39093FA
:1004400064008093650080936600109267000EC080
:1004500081E380936200809363008093640090E363
:100460009093650080936600109267008A8190E007
:10047000FC01F197E633F10508F0E4C0E15AFF4FC3
:100480000C94000480E38093620080936300809367
:10049000640091E39093650080936600109267007A
:1004A000D1C080E3809362008093630091E39093D6
:1004B0006400809365008093660010926700C2C05C
:1004C00080E3809362008093630091E390936400E3
:1004D000909365008093660010926700B3C080E33C
:1004E0008093620091E39093630080936400809313
:1004F00065008093660010926700A4C080E380933B
:10050000620091E390936300809364009093650090
:10051000809366001092670095C080E3809362002C
:1005200091E39093630090936400809365008093BF
:1005300066001092670086C090E39093620081E3AA
:1005400080936300809364008093650090936600BD
:100550001092670077C081E38093620080E380930C
:10056000630080936400809365008093660010921E
:10057000670068C091E39093620080E3809363001A
:1005800080936400909365008093660010926700EA
:1005900059C091E39093620080E38093630090934D
:1005A00064008093650080936600109267004AC0E3
:1005B00081E38093620090E39093630080936400F2
:1005C0008093650090936600109267003BC081E3C2
:1005D000809362008093630080E380936400809343
:1005E000650080936600109267002CC081E38093C1
:1005F00062008093630090E39093640080936500B1
:1006000090936600109267001DC081E380936200A2
:10061000809363008093640080E3809365008093FF
:100620006600109267000EC081E3809362008093A1
:100630006300809364008093650080E3809366008C
:100640001092670081E090E09093690080936800C9
:100650000F900F900F900F90DF91CF91FF91EF913E
:10066000BF91AF919F918F917F916F915F914F91CA
:100670003F912F910F900FBE0F901F90189521E082
:1006800048E060E875E280E090E00E944B030E9441
:10069000D0037894FFCF0F931F93522F8B019C01AF
:1006A0000E561109210931090339114C2140310538
:1006B00080F52BEF240F243060F520E22BB928E1E0
:1006C0002AB95111579A242F30E025503109220FB1
:1006D000331F206820BDDC01CB01880F991FAA1FA2
:1006E000BB1F880F991FAA1FBB1F9C01AD01220FC2
:1006F000331F441F551F220F331F441F551F60E037
:1007000070E488E390E00E94DE032150310930BD9F
:1007100029B91F910F9108955F9BFECF8CB1089569
:10072000EF92FF920F931F93CF93DF938C017B0186
:100730000E948C038D3099F01E141F0484F4F8017C
:10074000E00EF11EEF0121968E0180830E948C0342
:100750008D3029F0CE15DF0511F0FE01F3CFF80141
:100760001082DF91CF911F910F91FF90EF9008952C
:10077000BB9A8DEE92E00197F1F700C0000087B3BD
:1007800087BB08951F920F920FB60F9211248F937B
:100790008EE08CBF8F910F900FBE0F901F90189519
:1007A00087B387BB80E484BF8BB780628BBF89E649
:1007B00083BF12BE89B7826089BF0895A1E21A2E55
:1007C000AA1BBB1BFD010DC0AA1FBB1FEE1FFF1FF5
:1007D000A217B307E407F50720F0A21BB30BE40B45
:1007E000F50B661F771F881F991F1A9469F760958C
:1007F0007095809590959B01AC01BD01CF01089546
:10080000EE0FFF1F0590F491E02D0994F894FFCFAF
:020810000100E5
:00000001FF
