:100000000C9460000C947D000C947D000C94920084
:100010000C947D000C947D000C947D000C947D006C
:100020000C947D000C947D000C947D000C947D005C
:100030000C947D000C94FA000C947D000C947D00CF
:100040000C947D000C947D000C947D000C947D003C
:100050000C947D004A0159016801770186019501E0
:10006000A401B301C201D1012A022A022A022A02F2
:100070002A022A022A022A022A022A022A022A0220
:100080002A022A022A022A022A022A022A022A0210
:100090002A022A022A022A022A022A022A022A0200
:1000A0002A022A022A022A022A022A022A022A02F0
:1000B0002A022A022A02E001EF01FE010D021C02BF
:1000C00011241FBECFE5D8E0DEBFCDBF10E0A0E613
:1000D000B0E0E4E7F6E002C005900D92AE37B1075C
:1000E000D9F720E0AEE7B0E001C01D92A839B20711
:1000F000E1F70E9478020C9438030C9400005D9B99
:10010000FECF8CB90895CF93DF93EC0188818823CB
:1001100031F021960E947F0089918111FBCFDF9100
:10012000CF9108951F920F920FB60F9211242F9323
:100130003F934F935F936F937F938F939F93AF936F
:10014000BF93EF93FF93809197008F5F8093970009
:1001500080919300909194000197D9F58091970038
:1001600080FF0BC0E0919500F0919600E258FF4FA0
:100170008081813311F40E94F5028091970080FD07
:1001800014C0E0919500F0919600E258FF4F8081F5
:10019000803311F40E94F5028091950090919600B1
:1001A0000196909396008093950080919500909190
:1001B0009600449771F4109296001092950080E694
:1001C00090E00E948300109294001092930010928D
:1001D0007E00FF91EF91BF91AF919F918F917F91A1
:1001E0006F915F914F913F912F910F900FBE0F90A4
:1001F0001F9018951F920F920FB60F9211242F93F4
:100200003F934F935F936F937F938F939F93AF939E
:10021000BF93EF93FF93CF93DF9300D000D0CDB780
:10022000DEB764E070E0CE0101960E94CD02CE01FF
:1002300001960E9483008981813221F08F3309F079
:1002400040C10FC080E380937E0080937F00809345
:1002500080008093810081E380938200109283006C
:100260000DC080E380937E0080937F0080938000A8
:100270008093810080938200109283008A8190E0B5
:10028000FC01F097E633F10508F0E4C0E65DFF4FAE
:100290000C94320380E380938300809384008093E6
:1002A000850091E3909386008093870010928800E8
:1002B000D1C080E380938300809384008093850085
:1002C00081E3809386008093870010928800C2C0EB
:1002D00080E3809383008093840091E39093850072
:1002E000809386008093870010928800B3C080E3DB
:1002F000809383008093840091E3909385008093A2
:1003000086009093870010928800A4C080E38093B9
:1003100083008093840091E39093850090938600FE
:10032000809387001092880095C080E380938300BB
:100330008093840081E3809385008093860080937E
:1003400087001092880086C080E38093830091E349
:10035000909384008093850080938600809387002B
:100360001092880077C080E38093830091E390939C
:10037000840080938500809386009093870010927C
:10038000880068C080E38093830091E390938400A9
:100390008093850090938600809387001092880058
:1003A00059C090E39093830081E3809384009093FD
:1003B00085008093860080938700109288004AC051
:1003C00080E38093830091E3909384009093850071
:1003D0008093860080938700109288003BC090E352
:1003E0009093830081E380938400809385009093B1
:1003F000860080938700109288002CC090E3909331
:10040000830081E38093840080938500809386003D
:1004100090938700109288001DC080E38093830032
:1004200081E380938400809385008093860080938D
:100430008700109288000EC091E39093830080E3C0
:10044000809384008093850080938600909387003A
:10045000109288008B81803319F0863671F019C0B4
:1004600080E3809388008093890080938A0091E3E1
:1004700090938B0080938C000CC091E39093880044
:1004800080E38093890080938A0090938B0080930F
:100490008C0081E380938D0090E390938E00909385
:1004A0008F008093900080939100109292008EE7CD
:1004B00090E00E94830081E090E09093940080930C
:1004C00093000F900F900F900F90DF91CF91FF91BD
:1004D000EF91BF91AF919F918F917F916F915F91BC
:1004E0004F913F912F910F900FBE0F901F90189535
:1004F00021E048E060E875E280E090E00E94880238
:100500000E94FE02789483E790E00E948300FFCF70
:100510000F931F93522F8B019C010E561109210935
:1005200031090339114C2140310580F52BEF240F9F
:10053000243060F520E22BB928E12AB95111579AED
:10054000242F30E025503109220F331F206820BDB1
:10055000DC01CB01880F991FAA1FBB1F880F991FB1
:10056000AA1FBB1F9C01AD01220F331F441F551F43
:10057000220F331F441F551F60E070E488E390E0B2
:100580000E9410032150310930BD29B91F910F91EC
:1005900008955F9BFECF8CB10895EF92FF920F9369
:1005A0001F93CF93DF938C017B010E94C9028D3092
:1005B00099F01E141F0484F4F801E00EF11EEF01FF
:1005C00021968E0180830E94C9028D3029F0CE15BC
:1005D000DF0511F0FE01F3CFF8011082DF91CF911A
:1005E0001F910F91FF90EF9008958F9A8CEC9AE0F5
:1005F0000197F1F700C000008F98089587B387BB7B
:1006000081B381BB80E484BF8BB780628BBF89E1FB
:1006100085BD14BC89B7826089BF8EE083BD089513
:10062000A1E21A2EAA1BBB1BFD010DC0AA1FBB1FF6
:10063000EE1FFF1FA217B307E407F50720F0A21B68
:10064000B30BE40BF50B661F771F881F991F1A94D5
:1006500069F760957095809590959B01AC01BD01FF
:10066000CF010895EE0FFF1F0590F491E02D09943E
:04067000F894FFCF2C
:10067400646F6E652073656E64696E67207374754C
:0E068400666600696E697420646F6E65000022
:00000001FF
