S01500004C414231325F414444524553532E7372656378
S11300000C9495000C94B2000C94B2000C94B400BF
S11300100C94B2000C94B2000C94B2000C94B20094
S11300200C94B2000C94B2000C94A5040C94B2008D
S11300300C94B2000C942D010C94B2000C94B200F8
S11300400C94B2000C94B2000C94B2000C94B20064
S11300500C94B200600177018E01A501BC01D301AB
S1130060EA0101021802A102A102A102A102A10255
S1130070A102A102A102A102A102A102A102A10264
S1130080A102A102A102A102A102A102A102A10254
S1130090A102A102A102A102A102A102A102A10244
S11300A0A102A102A102A102A102A102A102A10234
S11300B0A102A1022F0246025D0274028B02AD026C
S11300C0C402DB02F2020903200337034E03650373
S11300D005040504050405040504050405040504D4
S11300E005040504050405040504050405040504C4
S11300F005040504050405040504050405040504B4
S113010005040504050405040504050405040504A3
S113011005040504050405040504050405047C031D
S11301209303AA03C103D803EF0311241FBECFE531
S1130130D8E0DEBFCDBF10E0A0E6B0E0E6EDF9E028
S113014002C005900D92A236B107D9F720E0A2E6CD
S1130150B0E001C01D92A037B207E1F70E9422046B
S11301600C94E9040C9400001F920F920FB60F92A6
S113017011242F933F934F935F936F937F938F93A8
S11301809F93AF93BF93EF93FF93809160008F5F32
S11301908093600080916C0090916D00019709F04C
S11301A04BC08091600080FD0EC0E0916E00F09124
S11301B06F00EE0FFF1FEE59FF4F80819181892B55
S11301C011F00E949B048091600080FF17C0E091B1
S11301D06E00F0916F00EE0FFF1FEE59FF4F80810C
S11301E09181019711F40E949B0480916E0090917B
S11301F06F00019690936F0080936E0080916E0063
S113020090916F000597C1F410926D0010926C00EC
S113021010926300109262001092650010926400C4
S113022010926700109266001092690010926800A4
S113023010926B0010926A00FF91EF91BF91AF9101
S11302409F918F917F916F915F914F913F912F91EA
S11302500F900FBE0F901F9018951F920F920FB61C
S11302600F9211242F933F934F935F936F937F9338
S11302708F939F93AF93BF93EF93FF93CF93DF93AA
S113028000D000D0CDB7DEB764E070E0CE010196B7
S11302900E9473048981813219F08F3309F0BBC243
S11302A08B81803309F0B1C28A8190E0FC01F1971F
S11302B0E533F10508F045C1E65DFF4F0C94E30416
S11302C01092630010926200109265001092640014
S11302D0109267001092660081E090E090936900AC
S11302E08093680090936B0080936A002AC11092F7
S11302F0630010926200109265001092640081E025
S113030090E09093670080936600109269001092C9
S1130310680090936B0080936A0013C1109263008D
S113032010926200109265001092640081E090E0E7
S113033090936700809366009093690080936800AF
S113034090936B0080936A00FCC01092630010923B
S1130350620081E090E090936500809364001092C5
S113036067001092660010926900109268009093E2
S11303706B0080936A00E5C01092630010926200E3
S113038081E090E090936500809364001092670090
S113039010926600909369008093680090936B00BC
S11303A080936A00CEC0109263001092620081E0D4
S11303B090E090936500809364009093670080932D
S11303C06600109269001092680090936B0080930D
S11303D06A00B7C0109263001092620081E090E05E
S11303E09093650080936400909367008093660007
S11303F0909369008093680090936B0080936A00E7
S1130400A0C081E090E0909363008093620010921A
S113041065001092640010926700109266001092BA
S113042069001092680090936B0080936A0089C001
S113043081E090E0909363008093620010926500E5
S11304401092640010926700109266009093690005
S11304508093680090936B0080936A0072C081E07F
S113046090E0909363008093620010926500109274
S11304706400909367008093660010926900109264
S1130480680090936B0080936A005BC081E090E009
S11304909093630080936200109265001092640050
S11304A0909367008093660090936900809368003E
S11304B090936B0080936A0044C081E090E0909335
S11304C063008093620090936500809364001092AF
S11304D06700109266001092690010926800909371
S11304E06B0080936A002DC081E090E090936300DC
S11304F0809362009093650080936400109267007B
S113050010926600909369008093680090936B004A
S113051080936A0016C081E090E09093630080931A
S113052062009093650080936400909367008093C9
S11305306600109269001092680090936B0080939B
S11305406A008A8190E0FC01F197E633F10508F036
S11305505CC1E15AFF4F0C94E304109263001092C3
S1130560620010926500109264001092670010926D
S1130570660081E090E09093690080936800109297
S11305806B0010926A0041C11092630010926200E5
S1130590109265001092640081E090E090936700EF
S11305A080936600109269001092680010926B00AC
S11305B010926A002AC11092630010926200109295
S11305C065001092640081E090E09093670080934E
S11305D06600909369008093680010926B001092FB
S11305E06A0013C1109263001092620081E090E0EF
S11305F090936500809364001092670010926600E7
S1130600109269001092680010926B0010926A00B8
S1130610FCC0109263001092620081E090E090931D
S113062065008093640010926700109266009093B6
S113063069008093680010926B0010926A00E5C014
S1130640109263001092620081E090E09093650044
S11306508093640090936700809366001092690011
S11306601092680010926B0010926A00CEC0109233
S113067063001092620081E090E0909365008093A3
S11306806400909367008093660090936900809360
S1130690680010926B0010926A00B7C081E090E08D
S11306A0909363008093620010926500109264003E
S11306B01092670010926600109269001092680010
S11306C010926B0010926A00A0C081E090E09093B9
S11306D0630080936200109265001092640010928F
S11306E067001092660090936900809368001092EE
S11306F06B0010926A0089C081E090E090936300DF
S113070080936200109265001092640090936700D9
S113071080936600109269001092680010926B003A
S113072010926A0072C081E090E09093630080931D
S113073062001092650010926400909367008093A9
S11307406600909369008093680010926B00109289
S11307506A005BC081E090E0909363008093620044
S11307609093650080936400109267001092660075
S1130770109269001092680010926B0010926A0047
S113078044C081E090E09093630080936200909372
S11307906500809364001092670010926600909345
S11307A069008093680010926B0010926A002DC05B
S11307B081E090E0909363008093620090936500E1
S11307C080936400909367008093660010926900A0
S11307D01092680010926B0010926A0016C081E0BB
S11307E090E09093630080936200909365008093FF
S11307F064009093670080936600909369008093EF
S1130800680010926B0010926A0081E090E090936F
S11308106D0080936C000F900F900F900F90DF91FC
S1130820CF91FF91EF91BF91AF919F918F917F9164
S11308306F915F914F913F912F910F900FBE0F9049
S11308401F90189521E048E060E875E280E090E0B0
S11308500E942E040E94B3047894FFCF0F931F9339
S1130860522F8B019C010E561109210931090339BC
S1130870114C2140310580F52BEF240F243060F515
S113088020E22BB928E12AB95111579A242F30E0DC
S113089025503109220F331F206820BDDC01CB0114
S11308A0880F991FAA1FBB1F880F991FAA1FBB1F60
S11308B09C01AD01220F331F441F551F220F331F0C
S11308C0441F551F60E070E488E390E00E94C10477
S11308D02150310930BD29B91F910F9108955F9BB3
S11308E0FECF8CB10895EF92FF920F931F93CF9395
S11308F0DF938C017B010E946F048D3099F01E14EC
S11309001F0484F4F801E00EF11EEF0121968E011C
S113091080830E946F048D3029F0CE15DF0511F01D
S1130920FE01F3CFF8011082DF91CF911F910F9157
S1130930FF90EF900895BB9A8DEE92E00197F1F746
S113094000C0000087B387BB08951F920F920FB6B3
S11309500F9211248F938EE08CBF8F910F900FBE56
S11309600F901F90189587B387BB80E484BF8BB723
S113097080628BBF89E683BF12BE89B7826089BF5C
S11309800895A1E21A2EAA1BBB1BFD010DC0AA1FCC
S1130990BB1FEE1FFF1FA217B307E407F50720F0E4
S11309A0A21BB30BE40BF50B661F771F881F991F5F
S11309B01A9469F760957095809590959B01AC01A8
S11309C0BD01CF010895EE0FFF1F0590F491E02DB6
S10909D00994F894FFCF26
S10509D601001A
S9030000FC
