S01500004C414231325F414444524553532E7372656378
S11300000C9495000C94B2000C94B2000C94B400BF
S11300100C94B2000C94B2000C94B2000C94B20094
S11300200C94B2000C94B2000C94C2030C94B20071
S11300300C94B2000C9432010C94B2000C94B200F3
S11300400C94B2000C94B2000C94B2000C94B20064
S11300500C94B2006501740183019201A101B00105
S1130060BF01CE01DD013602360236023602360207
S113007036023602360236023602360236023602BC
S113008036023602360236023602360236023602AC
S1130090360236023602360236023602360236029C
S11300A0360236023602360236023602360236028C
S11300B036023602EC01FB010A021902280242024E
S11300C0510260026F027E028D029C02AB02BA02F0
S11300D022032203220322032203220322032203F4
S11300E022032203220322032203220322032203E4
S11300F022032203220322032203220322032203D4
S113010022032203220322032203220322032203C3
S11301102203220322032203220322032203C9020D
S1130120D802E702F6020503140311241FBECFE52B
S1130130D8E0DEBFCDBF10E0A0E6B0E0E0E1F8E03B
S113014002C005900D92A836B107D9F720E0A8E6C1
S1130150B0E001C01D92AE36B207E1F70E943F0342
S11301600C9406040C9400001F920F920FB60F9289
S113017011242F933F934F935F936F937F938F93A8
S11301809F93AF93BF93EF93FF93809166008F5F2C
S1130190809366008091680090916900019709F04E
S11301A050C08091660080FF04C010926D001092D0
S11301B06C008091660080FF1AC0E0916A00F091A3
S11301C06B00E05AFF4F8081813389F40E94B803A9
S11301D080916A0090916B00019690936B008093DC
S11301E06A0081E090E090936D0080936C008091B0
S11301F0660080FD1AC0E0916A00F0916B00E05A3D
S1130200FF4F8081803389F480916C0090916D0060
S1130210892B59F40E94B80380916A0090916B0075
S1130220019690936B0080936A0080916A0090918C
S11302306B00059731F410926900109268001092D7
S11302406000FF91EF91BF91AF919F918F917F914A
S11302506F915F914F913F912F910F900FBE0F902F
S11302601F9018951F920F920FB60F9211242F937F
S11302703F934F935F936F937F938F939F93AF932A
S1130280BF93EF93FF93CF93DF9300D000D0CDB70C
S1130290DEB764E070E0CE0101960E94900389818C
S11302A0813219F08F3309F0D3C18B81803309F087
S11302B0C9C18A8190E0FC01F197E533F10508F0AA
S11302C0D5C0E65DFF4F0C94000480E3809360008A
S11302D0809361008093620081E380936300809344
S11302E0640010926500C2C080E380936000809334
S11302F0610091E3909362008093630090936400A3
S113030010926500B3C080E3809360008093610025
S113031081E3809362008093630080936400109271
S11303206500A4C080E38093600091E39093610032
S11303308093620080936300909364001092650040
S113034095C090E39093600081E380936100909363
S1130350620080936300809364001092650086C0FD
S113036090E39093600081E3809361008093620046
S113037090936300809364001092650077C080E3DB
S11303808093600081E38093610080936200809396
S11303906300809364001092650068C091E39093B9
S11303A0600080E380936100809362008093630027
S11303B0909364001092650059C081E380936000BB
S11303C090E3909361009093620080936300809324
S11303D06400109265004AC081E38093600090E35A
S11303E09093610080936200909363008093640013
S11303F0109265003BC081E38093600090E390938A
S11304006100809362008093630080936400109283
S113041065002CC081E3809360008093610090E3C9
S1130420909362009093630080936400109265003F
S11304301DC081E3809360008093610090E39093FA
S113044062008093630080936400109265000EC084
S113045081E380936000809361008093620090E365
S11304609093630080936400109265008A8190E009
S1130470FC01F197E633F10508F0E4C0E15AFF4FBF
S11304800C94000480E38093600080936100809367
S1130490620091E39093630080936400109265007E
S11304A0D1C080E3809360008093610091E39093D6
S11304B06200809363008093640010926500C2C060
S11304C080E3809360008093610091E390936200E5
S11304D0909363008093640010926500B3C080E33E
S11304E08093600091E39093610080936200809315
S11304F063008093640010926500A4C080E380933D
S1130500600091E390936100809362009093630094
S1130510809364001092650095C080E3809360002E
S113052091E39093610090936200809363008093C1
S113053064001092650086C090E39093600081E3AC
S113054080936100809362008093630090936400C1
S11305501092650077C081E38093600080E380930C
S11305606100809362008093630080936400109222
S1130570650068C091E39093600080E3809361001C
S113058080936200909363008093640010926500EE
S113059059C091E39093600080E38093610090934D
S11305A062008093630080936400109265004AC0E7
S11305B081E38093600090E39093610080936200F4
S11305C08093630090936400109265003BC081E3C4
S11305D0809360008093610080E380936200809345
S11305E0630080936400109265002CC081E38093C3
S11305F060008093610090E39093620080936300B5
S113060090936400109265001DC081E380936000A4
S1130610809361008093620080E380936300809301
S11306206400109265000EC081E3809360008093A3
S11306306100809362008093630080E38093640090
S11306401092650081E090E09093690080936800C7
S11306500F900F900F900F90DF91CF91FF91EF913A
S1130660BF91AF919F918F917F916F915F914F91C6
S11306703F912F910F900FBE0F901F90189521E07E
S113068048E060E875E280E090E00E944B030E943D
S1130690D0037894FFCF0F931F93522F8B019C01AB
S11306A00E561109210931090339114C2140310534
S11306B080F52BEF240F243060F520E22BB928E1DC
S11306C02AB95111579A242F30E025503109220FAD
S11306D0331F206820BDDC01CB01880F991FAA1F9E
S11306E0BB1F880F991FAA1FBB1F9C01AD01220FBE
S11306F0331F441F551F220F331F441F551F60E033
S113070070E488E390E00E94DE032150310930BD9B
S113071029B91F910F9108955F9BFECF8CB1089565
S1130720EF92FF920F931F93CF93DF938C017B0182
S11307300E948C038D3099F01E141F0484F4F80178
S1130740E00EF11EEF0121968E0180830E948C033E
S11307508D3029F0CE15DF0511F0FE01F3CFF8013D
S11307601082DF91CF911F910F91FF90EF90089528
S1130770BB9A8DEE92E00197F1F700C0000087B3B9
S113078087BB08951F920F920FB60F9211248F9377
S11307908EE08CBF8F910F900FBE0F901F90189515
S11307A087B387BB80E484BF8BB780628BBF89E645
S11307B083BF12BE89B7826089BF0895A1E21A2E51
S11307C0AA1BBB1BFD010DC0AA1FBB1FEE1FFF1FF1
S11307D0A217B307E407F50720F0A21BB30BE40B41
S11307E0F50B661F771F881F991F1A9469F7609588
S11307F07095809590959B01AC01BD01CF01089542
S1130800EE0FFF1F0590F491E02D0994F894FFCFAB
S10B08103000000000000100AB
S9030000FC
