:100000000C942A000C943F000C943F000C943F0089
:100010000C943F000C943F000C943F000C943F0064
:100020000C943F000C943F000C943F000C943F0054
:100030000C943F000C9471000C943F000C943F0012
:100040000C943F000C943F000C943F000C943F0034
:100050000C943F0011241FBECFE5D8E0DEBFCDBF1A
:1000600010E0A0E6B0E0E0E0F3E002C005900D9201
:10007000A038B107D9F70E9441000C947E010C947E
:10008000000021E048E060E875E280E090E00E9436
:10009000DF0078940E94BC00FFCFCF93C82F80531D
:1000A0000E94D00080E690E00E9429018C2F0E94DF
:1000B00025018CE690E00E942901CF910895CF930D
:1000C000C82F80530E94C00080E690E00E94290162
:1000D0008C2F0E9425018CE690E00E942901CF918F
:1000E00008951F920F920FB60F9211242F933F93F2
:1000F0004F935F936F937F938F939F93AF93BF9330
:10010000EF93FF93CF93DF9300D000D0CDB7DEB74E
:1001100064E070E0CE0101960E943801898181324D
:1001200011F08F3391F48B81803349F48A8190E010
:100130000E944D008AE790E00E94290106C08636A1
:1001400021F48A8190E00E945F000F900F900F9041
:100150000F90DF91CF91FF91EF91BF91AF919F9160
:100160008F917F916F915F914F913F912F910F9060
:100170000FBE0F901F9018958FEF84BB85BB08951D
:10018000883068F445B321E030E0B90102C0660F61
:10019000771F8A95E2F7CB018095842385BB08956C
:1001A000883060F445B321E030E0B90102C0660F49
:1001B000771F8A95E2F7CB01842B85BB08950F93B7
:1001C0001F93522F8B019C010E56110921093109F1
:1001D0000339114C2140310588F5453078F149301B
:1001E00068F520E22BB928E12AB95111579A242F3A
:1001F00030E025503109220F331F20683F6F20BDAA
:10020000DC01CB01880F991FAA1FBB1F880F991F04
:10021000AA1FBB1F9C01AD01220F331F441F551F96
:10022000220F331F441F551F60E070E488E390E005
:100230000E945C012150310930BD29B91F910F91F5
:1002400008955F9BFECF8CB108955D9BFECF8CB966
:100250000895CF93DF93EC018881882331F02196B4
:100260000E94250189918111FBCFDF91CF910895E3
:10027000EF92FF920F931F93CF93DF938C017B013B
:100280000E9421018D3079F01E141F0464F4E801EE
:10029000E00EF11E89938E010E9421018D3019F02C
:1002A000CE15DF05B9F7F8011082DF91CF911F91CC
:1002B0000F91FF90EF900895A1E21A2EAA1BBB1B8D
:1002C000FD010DC0AA1FBB1FEE1FFF1FA217B30722
:1002D000E407F50720F0A21BB30BE40BF50B661F38
:1002E000771F881F991F1A9469F7609570958095FC
:1002F00090959B01AC01BD01CF010895F894FFCF0B
:100300004C4544206E756D6D65722000206572202D
:10031000746F67676C65640D0A004C6F6C0D0A00A2
:00000001FF
