S01500004C414231325F414444524553532E7372656378
S11300000C942A000C943C000C943C000C943E008C
S11300100C943C000C943C000C943C000C943C006C
S11300200C943C000C943C000C948F010C943C0008
S11300300C943C000C9484000C943C000C943C0004
S11300400C943C000C943C000C943C000C943C003C
S11300500C943C0011241FBECFE5D8E0DEBFCDBF19
S113006020E0A0E6B0E001C01D92A63AB207E1F795
S11300700E9403010C9405020C9400001F920F923D
S11300800FB60F9211248F939F938091A4009091A7
S1130090A50001969093A5008093A4008091A000F0
S11300A09091A1000197F9F48091A4009091A5008A
S11300B08091A4009091A50081709078992324F4F4
S11300C001978E6F9F6F0196019769F48091A2004A
S11300D09091A30001969093A3008093A2001092A4
S11300E0A5001092A4008091A2009091A300809793
S11300F021F41092A1001092A0009F918F910F9073
S11301000FBE0F901F9018951F920F920FB60F926B
S113011011249F92AF92BF92CF92DF92EF92FF92FF
S11301200F931F932F933F934F935F936F937F93FB
S11301308F939F93AF93BF93EF93FF93CF93DF93EB
S1130140CDB7DEB76497DEBFCDBF64E070E0CE010B
S113015001960E9467018981813211F08F3389F5FC
S1130160CE0101966C010F2EF0E6EF2EF0E0FF2E8B
S1130170F02D5E0195E0A90EB11C6894992494F8C1
S11301808501F801892D11928A95E9F7F6016191AB
S11301906F0170E042E0C8010E94D001F7011183B1
S11301A0008380E690E00E945801F0E1EF0EF11C1C
S11301B0CA14DB0431F781E090E09093A1008093AE
S11301C0A00064960FB6F894DEBF0FBECDBFDF91DA
S11301D0CF91FF91EF91BF91AF919F918F917F91BB
S11301E06F915F914F913F912F911F910F91FF90CC
S11301F0EF90DF90CF90BF90AF909F900F900FBE85
S11302000F901F90189521E048E060E875E280E0C7
S113021090E00E940F010E949D017894FFCF0F93FC
S11302201F93522F8B019C010E561109210931098C
S11302300339114C2140310580F52BEF240F243074
S113024060F520E22BB928E12AB95111579A242FDD
S113025030E025503109220F331F206820BDDC0116
S1130260CB01880F991FAA1FBB1F880F991FAA1FB4
S1130270BB1F9C01AD01220F331F441F551F220FCA
S1130280331F441F551F60E070E488E390E00E9430
S1130290AE012150310930BD29B91F910F91089544
S11302A05F9BFECF8CB108955D9BFECF8CB9089502
S11302B0CF93DF93EC018881882331F021960E944B
S11302C0540189918111FBCFDF91CF910895EF9271
S11302D0FF920F931F93CF93DF938C017B010E94B6
S11302E050018D3099F01E141F0484F4F801E00EBF
S11302F0F11EEF0121968E0180830E9450018D3002
S113030029F0CE15DF0511F0FE01F3CFF8011082BC
S1130310DF91CF911F910F91FF90EF9008951F925D
S11303200F920FB60F9211248F938EE08CBF8F9192
S11303300F900FBE0F901F90189587B387BB8FEF58
S113034084BB80E484BF8BB780628BBF89E683BFA4
S113035012BE89B7826089BF78940895A1E21A2EEB
S1130360AA1BBB1BFD010DC0AA1FBB1FEE1FFF1F55
S1130370A217B307E407F50720F0A21BB30BE40BA5
S1130380F50B661F771F881F991F1A9469F76095EC
S11303907095809590959B01AC01BD01CF010895A6
S11303A0BB274A3031F4992322F4BDE2909581951C
S11303B09F4F0C94DC01BB27FB015527AA27880F0C
S11303C0991FAA1FA41710F0A41B83955051B9F7C5
S11303D0A05DAA3308F0A95DA193009779F7B11144
S11303E0B1931192CB010C94F501DC01FC01672F50
S11303F071917723E1F7329704C07C916D937083F8
S11104006291AE17BF07C8F30895F894FFCFBA
S9030000FC
