:100000000C9495000C94B2000C94B2000C94B400C3
:100010000C94B2000C94B2000C94B2000C94B20098
:100020000C94B2000C94B2000C9493030C94B200A4
:100030000C94B2000C943D010C94B2000C94B200EC
:100040000C94B2000C94B2000C94B2000C94B20068
:100050000C94B20070017D018A019701A401B101E5
:10006000BE01CB01D8012502250225022502250269
:100070002502250225022502250225022502250248
:100080002502250225022502250225022502250238
:100090002502250225022502250225022502250228
:1000A0002502250225022502250225022502250218
:1000B00025022502E501F201FF010C0219023102BD
:1000C0003E024B025802650272027F028C029902C4
:1000D000F302F302F302F302F302F302F302F30278
:1000E000F302F302F302F302F302F302F302F30268
:1000F000F302F302F302F302F302F302F302F30258
:10010000F302F302F302F302F302F302F302F30247
:10011000F302F302F302F302F302F302F302A60284
:10012000B302C002CD02DA02E70211241FBECFE5FE
:10013000D8E0DEBFCDBF10E0A0E6B0E0E2EBF7E034
:1001400002C005900D92A636B107D9F720E0A6E6C9
:10015000B0E001C01D92AC36B207E1F70E94100377
:100160000C94D7030C9400001F920F920FB60F92BD
:1001700011242F933F934F935F936F937F938F93AC
:100180009F93AF93BF93EF93FF93809165008F5F31
:10019000809365008091660090916700019709F057
:1001A0005BC08091650080FF04C010926B001092CC
:1001B0006A008091650080FF1AC0E0916800F091AC
:1001C0006900E05AFF4F8081813389F40E948903DE
:1001D00080916800909169000196909369008093E6
:1001E000680081E090E090936B0080936A008091BA
:1001F000650080FD1AC0E0916800F0916900E05A46
:10020000FF4F8081803389F480916A0090916B0068
:10021000892B59F40E9489038091680090916900AC
:100220000196909369008093680080916800909196
:100230006900059789F4109267001092660080E3C8
:1002400080936000809361008093620080936300DC
:100250008093640010926500FF91EF91BF91AF9180
:100260009F918F917F916F915F914F913F912F91CE
:100270000F900FBE0F901F9018951F920F920FB600
:100280000F9211242F933F934F935F936F937F931C
:100290008F939F93AF93BF93EF93FF93CF93DF938E
:1002A00000D000D0CDB7DEB764E070E0CE0101969B
:1002B0000E9461038981813219F08F3309F099C15D
:1002C0008B81803309F08FC18A8190E0FC01F19726
:1002D000E533F10508F0B9C0E65DFF4F0C94D1039A
:1002E00080E380936000809361008093620081E3EB
:1002F0008093630080936400A8C080E380936000D3
:100300008093610091E390936200809363009093E7
:1003100064009BC080E3809360008093610081E370
:100320008093620080936300809364008EC080E3BA
:100330008093600091E390936100809362008093CA
:1003400063009093640081C090E39093600081E328
:1003500080936100909362008093630080936400B7
:1003600074C090E39093600081E380936100809378
:100370006200909363008093640067C080E3809381
:10038000600081E38093610080936200809363004A
:10039000809364005AC091E39093600080E380935F
:1003A00061008093620080936300909364004DC06D
:1003B00081E38093600090E39093610090936200EA
:1003C000809363008093640040C081E38093600069
:1003D00090E3909361008093620090936300809318
:1003E000640033C081E38093600090E390936100E8
:1003F00080936200809363008093640026C081E351
:10040000809360008093610090E3909362009093EA
:1004100063008093640019C081E38093600080933F
:10042000610090E390936200809363008093640086
:100430000CC081E380936000809361008093620030
:1004400090E390936300809364008A8190E0FC01C4
:10045000F197E633F10508F0C6C0E15AFF4F0C945E
:10046000D10380E3809360008093610080936200F9
:1004700091E39093630080936400B5C080E3809320
:1004800060008093610091E3909362008093630029
:1004900080936400A8C080E3809360008093610033
:1004A00091E39093620090936300809364009BC0FB
:1004B00080E38093600091E39093610080936200F9
:1004C00080936300809364008EC080E3809360001B
:1004D00091E3909361008093620090936300809316
:1004E000640081C080E38093600091E39093610099
:1004F00090936200809363008093640074C090E3E3
:100500009093600081E38093610080936200809308
:1005100063009093640067C081E38093600080E390
:1005200080936100809362008093630080936400F5
:100530005AC091E39093600080E3809361008093C0
:10054000620090936300809364004DC091E39093A8
:10055000600080E380936100909362008093630069
:100560008093640040C081E38093600090E39093A7
:10057000610080936200809363009093640033C0B5
:1005800081E3809360008093610080E38093620048
:10059000809363008093640026C081E380936000B1
:1005A0008093610090E39093620080936300909346
:1005B000640019C081E380936000809361008093A0
:1005C000620080E380936300809364000CC081E349
:1005D0008093600080936100809362008093630049
:1005E00080E38093640081E090E0909367008093C3
:1005F00066000F900F900F900F90DF91CF91FF91B9
:10060000EF91BF91AF919F918F917F916F915F918A
:100610004F913F912F910F900FBE0F901F90189503
:1006200021E048E060E875E280E090E00E941C0371
:100630000E94A1037894FFCF0F931F93522F8B0139
:100640009C010E561109210931090339114C214031
:10065000310580F52BEF240F243060F520E22BB913
:1006600028E12AB95111579A242F30E02550310939
:10067000220F331F206820BDDC01CB01880F991F9A
:10068000AA1FBB1F880F991FAA1FBB1F9C01AD018A
:10069000220F331F441F551F220F331F441F551FA6
:1006A00060E070E488E390E00E94AF0321503109DC
:1006B00030BD29B91F910F9108955F9BFECF8CB17A
:1006C0000895EF92FF920F931F93CF93DF938C01C6
:1006D0007B010E945D038D3099F01E141F0484F489
:1006E000F801E00EF11EEF0121968E0180830E9439
:1006F0005D038D3029F0CE15DF0511F0FE01F3CF3B
:10070000F8011082DF91CF911F910F91FF90EF9030
:100710000895BB9A8DEE92E00197F1F700C00000BA
:1007200087B387BB08951F920F920FB60F921124C3
:100730008F938EE08CBF8F910F900FBE0F901F9004
:10074000189587B387BB80E484BF8BB780628BBF6B
:1007500089E683BF12BE89B7826089BF0895A1E28E
:100760001A2EAA1BBB1BFD010DC0AA1FBB1FEE1F2B
:10077000FF1FA217B307E407F50720F0A21BB30B76
:10078000E40BF50B661F771F881F991F1A9469F7F2
:1007900060957095809590959B01AC01BD01CF014E
:1007A0000895EE0FFF1F0590F491E02D0994F89441
:0207B000FFCF79
:0607B20030000000000110
:00000001FF
