S01500004C414231325F414444524553532E7372656378
S11300000C942A000C9447000C9447000C9449006B
S11300100C9447000C9447000C9447000C94470040
S11300200C9447000C9447000C94CE010C944700A8
S11300300C9447000C94C1000C9447000C944700A6
S11300400C9447000C9447000C9447000C94470010
S11300500C94470011241FBECFE5D8E0DEBFCDBF0E
S113006010E0A0E6B0E0E6E8F4E002C005900D92EE
S1130070A436B107D9F720E0A4E6B0E001C01D9290
S1130080AA3AB207E1F70E9438010C9441020C9499
S113009000001F920F920FB60F9211242F933F93DB
S11300A04F935F936F937F938F939F93AF93BF937C
S11300B0EF93FF938091A8009091A90001969093EB
S11300C0A9008093A8008091A4009091A5000197B5
S11300D0E9F58091A8009091A90080FD0EC0E091FF
S11300E0A600F091A700EE0FFF1FEC59FF4F80818F
S11300F09181892B11F00E94C4018091A8009091F4
S1130100A90081709078992324F401978E6F9F6FD2
S113011001960197D9F4E091A600F091A700EE0FA3
S1130120FF1FEC59FF4F80819181892B11F40E94AC
S1130130C4018091A6009091A70001969093A70016
S11301408093A6001092A9001092A8008091A600A6
S11301509091A700809721F41092A5001092A4001A
S1130160FF91EF91BF91AF919F918F917F916F918B
S11301705F914F913F912F910F900FBE0F901F9061
S113018018951F920F920FB60F921124AF92BF923F
S1130190CF92DF92EF92FF920F931F932F933F938F
S11301A04F935F936F937F938F939F93AF93BF937B
S11301B0EF93FF93CF93DF93CDB7DEB76697DEBFA0
S11301C0CDBF64E070E0CE0101960E949C0189815C
S11301D0813211F08F3359F58E010F5F1F4F0F2EAF
S11301E0F4E6CF2EF0E0DF2EF02D5E0185E0A80EC0
S11301F0B11C7501F80161918F0170E042E0C70103
S11302000E940C02F601E192F1926F0180E690E007
S11302100E948D0184E690E00E948D010A151B0561
S113022049F781E090E09093A5008093A40066963E
S11302300FB6F894DEBF0FBECDBFDF91CF91FF9113
S1130240EF91BF91AF919F918F917F916F915F914A
S11302504F913F912F911F910F91FF90EF90DF905D
S1130260CF90BF90AF900F900FBE0F901F90189536
S113027021E048E060E875E280E090E00E944401FB
S11302800E94DC017894FFCF0F931F93522F8B01B0
S11302909C010E561109210931090339114C2140E1
S11302A0310580F52BEF240F243060F520E22BB9C3
S11302B028E12AB95111579A242F30E025503109E9
S11302C0220F331F206820BDDC01CB01880F991F4A
S11302D0AA1FBB1F880F991FAA1FBB1F9C01AD013A
S11302E0220F331F441F551F220F331F441F551F56
S11302F060E070E488E390E00E94EA012150310953
S113030030BD29B91F910F9108955F9BFECF8CB129
S113031008955D9BFECF8CB90895CF93DF93EC01D4
S11303208881882331F021960E9489018991811165
S1130330FBCFDF91CF910895EF92FF920F931F931C
S1130340CF93DF938C017B010E9485018D3099F05E
S11303501E141F0484F4F801E00EF11EEF0121962F
S11303608E0180830E9485018D3029F0CE15DF0532
S113037011F0FE01F3CFF8011082DF91CF911F91AC
S11303800F91FF90EF900895BB9A8DEE92E0019744
S1130390F1F700C0000087B387BB08951F920F9246
S11303A00FB60F9211248F938EE08CBF8F910F9014
S11303B00FBE0F901F90189587B387BB80E484BF4E
S11303C08BB780628BBF89E683BF12BE89B7826018
S11303D089BF0895A1E21A2EAA1BBB1BFD010DC003
S11303E0AA1FBB1FEE1FFF1FA217B307E407F507E1
S11303F020F0A21BB30BE40BF50B661F771F881FBD
S1130400991F1A9469F760957095809590959B0152
S1130410AC01BD01CF010895BB274A3031F49923C3
S113042022F4BDE2909581959F4F0C941802BB274E
S1130430FB015527AA27880F991FAA1FA41710F09C
S1130440A41B83955051B9F7A05DAA3308F0A95DA8
S1130450A193009779F7B111B1931192CB010C9448
S11304603102DC01FC01672F71917723E1F73297A8
S113047004C07C916D9370836291AE17BF07C8F37B
S10904800895F894FFCF7B
S10704866C6F6C0027
S9030000FC
