S01500004C414231325F414444524553532E7372656378
S11300000C9460000C947D000C947D000C94920080
S11300100C947D000C947D000C947D000C947D0068
S11300200C947D000C947D000C947D000C947D0058
S11300300C947D000C9438010C947D000C947D008C
S11300400C947D000C947D000C947D000C947D0038
S11300500C947D0088019701A601B501C401D30168
S1130060E201F10100020F026802680268026802FC
S1130070680268026802680268026802680268022C
S1130080680268026802680268026802680268021C
S1130090680268026802680268026802680268020C
S11300A068026802680268026802680268026802FC
S11300B06802680268021E022D023C024B025A02C8
S11300C011241FBECFE5D8E0DEBFCDBF10E0A0E60F
S11300D0B0E0E8EEF6E002C005900D92A238B10758
S11300E0D9F720E0A2E8B0E001C01D92AE39B20712
S11300F0E1F70E94B2020C9472030C9400005D9B21
S1130100FECF8CB90895CF93DF93EC0188818823C7
S113011031F021960E947F0089918111FBCFDF91FC
S1130120CF9108951F920F920FB60F9211242F931F
S11301303F934F935F936F937F938F939F93AF936B
S1130140BF93EF93FF938091990090919A00019748
S113015009F07DC080918200909183000297F1F5AF
S113016080919D008F5F80939D0080919D0080FF12
S113017014C0E0919B00F0919C00EC57FF4F8081EC
S1130180813339F40E942F0380E690E00E948300BB
S113019004C082E690E00E94830080919D0080FD6F
S11301A01DC0E0919B00F0919C00EC57FF4F8081B3
S11301B0803339F40E942F0380E690E00E9483008C
S11301C004C082E690E00E94830080919B0090919D
S11301D09C00019690939C0080939B0080918200E8
S11301E090918300009769F40E942F0380E690E0C9
S11301F00E94830081E090E09093830080938200CA
S113020002C0019761F40E942F0380E690E00E94EF
S1130210830082E090E09093830080938200809139
S11302209B0090919C00449791F410929C00109232
S11302309B0084E690E00E94830010929A00109242
S11302409900109284001092830010928200FF9112
S1130250EF91BF91AF919F918F917F916F915F913A
S11302604F913F912F910F900FBE0F901F901895B3
S11302701F920F920FB60F9211242F933F934F9317
S11302805F936F937F938F939F93AF93BF93EF93FA
S1130290FF93CF93DF9300D000D0CDB7DEB764E0F7
S11302A070E0CE0101960E940703CE0101960E94E0
S11302B083008981813221F08F3309F03CC10FC062
S11302C080E38093840080938500809386008093EC
S11302D0870081E380938800109289000DC080E339
S11302E080938400809385008093860080938700A8
S11302F080938800109289008A8190E0FC01F09735
S1130300E633F10508F0E4C0E65DFF4F0C946C039E
S113031080E38093890080938A0080938B0091E32B
S113032090938C0080938D0010928E00D1C080E356
S11303308093890080938A0080938B0081E380936B
S11303408C0080938D0010928E00C2C080E3809355
S1130350890080938A0091E390938B0080938C00B2
S113036080938D0010928E00B3C080E38093890047
S113037080938A0091E390938B0080938C009093F8
S11303808D0010928E00A4C080E380938900809336
S11303908A0091E390938B0090938C0080938D005E
S11303A010928E0095C080E38093890080938A0028
S11303B081E380938B0080938C0080938D00109256
S11303C08E0086C080E38093890091E390938A0035
S11303D080938B0080938C0080938D0010928E000C
S11303E077C080E38093890091E390938A0080939F
S11303F08B0080938C0090938D0010928E0068C0C7
S113040080E38093890091E390938A0080938B002A
S113041090938C0080938D0010928E0059C090E3CD
S11304209093890081E380938A0090938B0080935A
S11304308C0080938D0010928E004AC080E38093DC
S1130440890091E390938A0090938B0080938C00B1
S113045080938D0010928E003BC090E390938900AE
S113046081E380938A0080938B0090938C00809327
S11304708D0010928E002CC090E39093890081E34C
S113048080938A0080938B0080938C0090938D00DE
S113049010928E001DC080E38093890081E38093D5
S11304A08A0080938B0080938C0080938D0010923F
S11304B08E000EC081E38093890080E380938A00DC
S11304C080938B0080938C0080938D0010928E001B
S11304D08B81803319F0863671F019C080E38093E4
S11304E08E0080938F008093900091E3909391000D
S11304F0809392000CC091E390938E0080E38093EC
S11305008F0080939000809391009093920081E3F8
S11305108093930090E3909394009093950080933C
S11305209600809397001092980081E090E0909359
S11305309A00809399000F900F900F900F90DF9185
S1130540CF91FF91EF91BF91AF919F918F917F9147
S11305506F915F914F913F912F910F900FBE0F902C
S11305601F90189521E048E060E875E280E090E093
S11305700E94C2020E943803789487E790E00E94A8
S11305808300FFCF0F931F93522F8B019C010E56B4
S11305901109210931090339114C2140310580F534
S11305A02BEF240F243060F520E22BB928E12AB97F
S11305B05111579A242F30E025503109220F331F4F
S11305C0206820BDDC01CB01880F991FAA1FBB1F27
S11305D0880F991FAA1FBB1F9C01AD01220F331F57
S11305E0441F551F220F331F441F551F60E070E442
S11305F088E390E00E944A032150310930BD29B9B3
S11306001F910F9108955F9BFECF8CB10895EF92D7
S1130610FF920F931F93CF93DF938C017B010E9472
S113062003038D3099F01E141F0484F4F801E00EC6
S1130630F11EEF0121968E0180830E9403038D3009
S113064029F0CE15DF0511F0FE01F3CFF801108279
S1130650DF91CF911F910F91FF90EF9008958F9AA2
S11306608CEC9AE00197F1F700C000008F98089590
S113067087B387BB81B381BB80E484BF8BB78062BF
S11306808BBF89E185BD14BC89B7826089BF8EE0C8
S113069083BD0895A1E21A2EAA1BBB1BFD010DC048
S11306A0AA1FBB1FEE1FFF1FA217B307E407F5071E
S11306B020F0A21BB30BE40BF50B661F771F881FFA
S11306C0991F1A9469F760957095809590959B0190
S11306D0AC01BD01CF010895EE0FFF1F0590F49109
S10B06E0E02D0994F894FFCF0A
S11306E831003000646F6E652073656E64696E67EF
S11306F820737475666600696E697420646F6E652C
S10507080000EB
S9030000FC
