:100000000C9460000C947D000C947D000C94920084
:100010000C947D000C947D000C947D000C947D006C
:100020000C947D000C947D000C947D000C947D005C
:100030000C947D000C9440010C947D000C947D0088
:100040000C947D000C947D000C947D000C947D003C
:100050000C947D0090019F01AE01BD01CC01DB013C
:10006000EA01F901080217027002700270027002C0
:1000700070027002700270027002700270027002F0
:1000800070027002700270027002700270027002E0
:1000900070027002700270027002700270027002D0
:1000A00070027002700270027002700270027002C0
:1000B000700270027002260235024402530262028C
:1000C00011241FBECFE5D8E0DEBFCDBF10E0A0E613
:1000D000B0E0E8EFF6E002C005900D92AE39B1074E
:1000E000D9F720E0AEE9B0E001C01D92AA3BB2070B
:1000F000E1F70E94BA020C947A030C9400005D9B15
:10010000FECF8CB90895CF93DF93EC0188818823CB
:1001100031F021960E947F0089918111FBCFDF9100
:10012000CF9108951F920F920FB60F9211242F9323
:100130003F934F935F936F937F938F939F93AF936F
:10014000BF93EF93FF938091B5009091B600019714
:1001500009F085C080919E0090919F000297F1F573
:100160008091B9008F5F8093B9008091B90080FFC2
:1001700014C0E091B700F091B800E056FF4F8081C5
:10018000813339F40E94370380E690E00E948300B7
:1001900004C082E690E00E9483008091B90080FD57
:1001A0001DC0E091B700F091B800E056FF4F80818C
:1001B000803339F40E94370380E690E00E94830088
:1001C00004C082E690E00E9483008091B700909185
:1001D000B80001969093B8008093B70080919E007C
:1001E00090919F00009789F40E94370380E690E089
:1001F0000E94830084E690E00E94830081E090E00A
:1002000090939F0080939E0002C0019781F40E940A
:10021000370380E690E00E94830082E790E00E942E
:10022000830082E090E090939F0080939E008091F5
:10023000B7009091B800449791F41092B8001092D2
:10024000B70080E890E00E9483001092B600109200
:10025000B5001092A00010929F0010929E00FF9196
:10026000EF91BF91AF919F918F917F916F915F912E
:100270004F913F912F910F900FBE0F901F901895A7
:100280001F920F920FB60F9211242F933F934F930B
:100290005F936F937F938F939F93AF93BF93EF93EE
:1002A000FF93CF93DF9300D000D0CDB7DEB764E0EB
:1002B00070E0CE0101960E940F03CE0101960E94CC
:1002C00083008981813221F08F3309F03CC10FC056
:1002D00080E38093A0008093A1008093A20080938C
:1002E000A30081E38093A4001092A5000DC080E3D9
:1002F0008093A0008093A1008093A2008093A3002C
:100300008093A4001092A5008A8190E0FC01F097F0
:10031000E633F10508F0E4C0E65DFF4F0C9474038A
:1003200080E38093A5008093A6008093A70091E3CB
:100330009093A8008093A9001092AA00D1C080E3F6
:100340008093A5008093A6008093A70081E380930B
:10035000A8008093A9001092AA00C2C080E38093F5
:10036000A5008093A60091E39093A7008093A80036
:100370008093A9001092AA00B3C080E38093A500E7
:100380008093A60091E39093A7008093A800909398
:10039000A9001092AA00A4C080E38093A5008093D6
:1003A000A60091E39093A7009093A8008093A900E2
:1003B0001092AA0095C080E38093A5008093A600C8
:1003C00081E38093A7008093A8008093A9001092F6
:1003D000AA0086C080E38093A50091E39093A600D5
:1003E0008093A7008093A8008093A9001092AA0090
:1003F00077C080E38093A50091E39093A60080935B
:10040000A7008093A8009093A9001092AA0068C04A
:1004100080E38093A50091E39093A6008093A700CA
:100420009093A8008093A9001092AA0059C090E36D
:100430009093A50081E38093A6009093A7008093FA
:10044000A8008093A9001092AA004AC080E380937C
:10045000A50091E39093A6009093A7008093A80035
:100460008093A9001092AA003BC090E39093A5004E
:1004700081E38093A6008093A7009093A8008093C7
:10048000A9001092AA002CC090E39093A50081E3EC
:100490008093A6008093A7008093A8009093A90062
:1004A0001092AA001DC080E38093A50081E3809391
:1004B000A6008093A7008093A8008093A9001092C3
:1004C000AA000EC081E38093A50080E38093A6007C
:1004D0008093A7008093A8008093A9001092AA009F
:1004E0008B81803319F0863671F019C080E38093D8
:1004F000AA008093AB008093AC0091E39093AD0091
:100500008093AE000CC091E39093AA0080E38093A7
:10051000AB008093AC008093AD009093AE0081E37C
:100520008093AF0090E39093B0009093B1008093DC
:10053000B2008093B3001092B40081E090E09093F9
:10054000B6008093B5000F900F900F900F90DF9141
:10055000CF91FF91EF91BF91AF919F918F917F913B
:100560006F915F914F913F912F910F900FBE0F9020
:100570001F90189521E048E060E875E280E090E087
:100580000E94CA020E944003789483E990E00E948E
:100590008300FFCF0F931F93522F8B019C010E56A8
:1005A0001109210931090339114C2140310580F528
:1005B0002BEF240F243060F520E22BB928E12AB973
:1005C0005111579A242F30E025503109220F331F43
:1005D000206820BDDC01CB01880F991FAA1FBB1F1B
:1005E000880F991FAA1FBB1F9C01AD01220F331F4B
:1005F000441F551F220F331F441F551F60E070E436
:1006000088E390E00E9452032150310930BD29B99E
:100610001F910F9108955F9BFECF8CB10895EF92CB
:10062000FF920F931F93CF93DF938C017B010E9466
:100630000B038D3099F01E141F0484F4F801E00EB2
:10064000F11EEF0121968E0180830E940B038D30F5
:1006500029F0CE15DF0511F0FE01F3CFF80110826D
:10066000DF91CF911F910F91FF90EF9008958F9A96
:100670008CEC9AE00197F1F700C000008F98089584
:1006800087B387BB81B381BB80E484BF8BB78062B3
:100690008BBF89E185BD14BC89B7826089BF8EE0BC
:1006A00083BD0895A1E21A2EAA1BBB1BFD010DC03C
:1006B000AA1FBB1FEE1FFF1FA217B307E407F50712
:1006C00020F0A21BB30BE40BF50B661F771F881FEE
:1006D000991F1A9469F760957095809590959B0184
:1006E000AC01BD01CF010895EE0FFF1F0590F491FD
:0806F000E02D0994F894FFCFFE
:1006F800310030007265616479636865636B20312D
:1007080020007265616479636865636B203220003C
:10071800646F6E652073656E64696E6720737475A7
:0E072800666600696E697420646F6E6500007D
:00000001FF
